:020000040000FA
:060000009FEF12F0120058
:020006001200E6
:060008002BEF06F01200D0
:02000E000300ED
:10001000AA250000A2000000060000009A250000AA
:10002000800000001000000098250000AC000000D7
:0400300002000000CA
:0C00340056EC05F0FB0EDBCFF3FFDB0603
:10004000F35000090AE0A4EC05F0FA0E0FEC06F0FC
:10005000F3E1151CF1E1010E01D0000E85EF05F072
:1000600056EC05F03B0EE12402E3E168E652E16E56
:10007000010EDB6A020EDB6AF90EDBCFF6FFFA0E29
:10008000DBCFF7FFFB0EDBCFF8FF0800F550DF6E8C
:10009000DF5002E1A9EF04F0250EDF5C02E09CEFE7
:1000A00004F0030EDB6A040EDB6A050EDB6A060E43
:1000B000DB6A070EDB6ABEEC04F02D0EDF5C0CE0A1
:1000C0002B0EDF5C09E0200EDF5C06E0230EDF5C18
:1000D00003E0300EDF5C1AE1DF50300A14E0130A4F
:1000E0000FE0030A0AE00B0A05E0060AE4E1030E4A
:1000F000DB80E1D7030EDB82DED7030EDB84DBD7A8
:10010000030EDB86D8D7030EDB88D5D72A0EDF5C3B
:100110001BE1BAEC04F008EC05F010E0030EDB8004
:1001200008680968130EDBCF0DF0140EDBCF0EF05C
:10013000AAEC0DF0040E06C0DBFF03D0130EF1ECA9
:1001400004F0BEEC04F00BD0090EDB6A5FEC05F0A6
:1001500003E0D3EC05F0FAD7090EF1EC04F0030E3E
:10016000DBB0DB982E0EDF5C1BE1BEEC04F02A0E48
:10017000DF5C0BE1BAEC04F008EC05F003E1130ED0
:1001800043EC05F0BEEC04F00BD0090EDB6A5FEC2B
:1001900005F003E0D3EC05F0FAD7090E43EC05F0C7
:1001A000680EDF5C07E1BEEC04F0680EDF5C1DE169
:1001B000030E18D0740EDF5C17E07A0EDF5C14E0DB
:1001C000480EDF5C06E0540EDF5C03E05A0EDF5C95
:1001D00002E1020E07D06C0EDF5C03E06A0EDF5C0A
:1001E00004E1010E96EC05F0C9DBDF506E0A01E177
:1001F0007FD31E0A01E192D1200A01E18FD13F0A8B
:1002000001E149D11A0A01E146D10D0A01E143D1C8
:10021000200A01E140D13A0A01E13DD1200A01E181
:100220003AD1260A01E135D10D0A01E132D11A0A8B
:1002300001E1D9D0200A4AE0300A1FE0460A0EE068
:10024000250A01E083D3D950F90FE96EFF0EDA20B9
:10025000EA6E010EEE5E000EEE5AEE5AA4EC05F0C8
:10026000250EE66E95DB03E1151C01E169D3A0ECD8
:1002700005F001E26BD3DB2A69D3080EDB6A040EBA
:10028000DB50010806E2040EDB0468EC05F0DB50ED
:100290008BDB080EDB5009E0030EDB50010B05E1A0
:1002A00072DB01E04DD3080EDB6A64DBEFCFDFFFCA
:1002B00018EC06F003E1151C01E142D3A0EC05F0B7
:1002C00001E3DB2A60DB01E141D33AD3070EDB50C7
:1002D00002080FE1E4EC05F0030EABEC05F00E0EA6
:1002E000EECFDBFF0F0EEECFDBFF100EEECFDBFF0E
:1002F00020D0F70EDBCF17F0F80EDBCF18F0020E90
:10030000175E000E185AF70E17C0DBFFF80E18C064
:10031000DBFF17C0E9FF18C0EAFF9BEC05F0166A87
:100320000E0E14C0DBFF0F0E15C0DBFF100E16C043
:10033000DBFF0E0EDBCFE6FF0F0EDBCFE6FF100E6E
:10034000DBCFE6FF1EEC12F0E552E552E552130E4C
:1003500007C0DBFF140E08C0DBFF060EDB5005E014
:10036000130EDFEC05F001E26ADB03EC06F002E2BB
:10037000130E37DBC6EC05F006E0040EDFEC05F0EB
:1003800002E2050E2EDB030EDBB005D0FCDA01E045
:10039000D7D2080EDB6A090EDB6A0E0EDBCFF6FF42
:1003A0000F0EDBCFF7FF100EDBCFF8FF0800F55084
:1003B000DF6EDF5014E009EC06F011E218EC06F0F5
:1003C00003E1151C01E1BCD2BBDB01E3DB2A090E12
:1003D000DB2AD9500E0FE96E000ECBDBE7D7D3DA5C
:1003E00001E1B4D2ADD2C6DA110EEECFDBFF120EB0
:1003F000EDCFDBFF110EDBCFE6FF120EDBCFE6FF0A
:1004000010EC12F0E552E552130EF3CFDBFF140EA1
:10041000F4CFDBFF060EDB5004E0130ED0DB01E26D
:100420000EDB03EC06F002E2130EDBDAAFDB05E0D5
:10043000040EC5DB02E2050ED4DA030EDBB005D0F4
:10044000A2DA01E07DD2080EDB6A090EDB6A110E2A
:10045000DBCFE9FF120EDBCFEAFFEFCFDFFFDF508C
:1004600014E0D7DB12E2E4DB03E1151C01E168D202
:1004700067DB01E3DB2A090EDB2A110EDB2ADBCF67
:10048000E9FF120EE8E3DB2AE6D77DDA01E15ED26E
:1004900057D2030EDB8E070EDB0410E195DB040E52
:1004A0005ADB0A0EEECFDBFF0B0EEECFDBFF0C0E9E
:1004B000EECFDBFF0D0EEECFDBFF6CD0070EDB5077
:1004C00003082CE1030EDBAE0DD0B2DA020E76DAB1
:1004D000EFCF14F0156A166A176A14AE39D0156892
:1004E000166835D0F70EDBCF15F0F80EDBCF16F01F
:1004F000020E155E000E165AF70E15C0DBFFF80E41
:1005000016C0DBFF15C0E9FF16C0EAFFEFCF14F0FD
:100510000A0E14C0DBFF0B0EDB6A38D0070EDB506F
:10052000020809E1030EDBAE04D059DB16AE10D091
:100530000ED055DB0DD0030EDBAE12D079DA020EF1
:100540003DDAF9DA166A176A15AE02D0166817682E
:10055000E2DA0C0E16C0DBFF0D0E17C0DBFF1AD05F
:10056000F70EDBCF16F0F80EDBCF17F0020E165E9B
:10057000000E175AF70E16C0DBFFF80E17C0DBFF90
:1005800016C0E9FF17C0EAFFD6DAC5DA0C0EDB6A3F
:100590000D0EDB6A060EDB5005E1010EF36E050E53
:1005A000F3CFDBFF150EDB6A160EDB6AD950370F6F
:1005B000146E000EDA20156E390E14C0DBFF3A0EF1
:1005C00015C0DBFF380EDB6A080EDB6A0A0EAEDAF6
:1005D000DF50780A12E0200A10E0280A0CE0200A16
:1005E0000AE03F0A06E00D0A02E0200A08E1020ED6
:1005F00005D0080E03D0080EDF26100E97DA030E82
:10060000DBBE02D0DB92DB94DB50800B24E08ADA85
:10061000D890030EEB50000A08E6000EEE5C000EC8
:10062000EE58000EEE58000EEE5815E213DA0B6885
:100630000C680D680E68D8EC11F00A0E02C0DBFFE2
:100640000B0E03C0DBFF0C0E04C0DBFF0D0E05C05C
:10065000DBFF2D0E08D0030EDBA202D02B0E03D041
:10066000DBA408D0200EF36E170EF3CFDBFF150EC0
:10067000DB2A02D0170EDB6A050EDB5003E1B7D987
:1006800001E189D0760E146E250E156E000E166EE1
:10069000070EDBCF17F0186A196A1A6A17C00BF039
:1006A00018C00CF019C00DF01AC00EF0D3D943ECED
:1006B00012F014500224F36E15500320F46E1650FD
:1006C0000420F86EF4CFF7FFF3CFF6FF0800090E11
:1006D000F5CFDBFF580EDF5C0FE1610EF36E090E04
:1006E0007BD90AE3200E146E090EDBCFE7FF14500E
:1006F000E75E090EE7CFDBFF070EDBCF14F0156ACC
:10070000166A176A0FDA14C00BF015C00CF016C089
:100710000DF017C00EF0EECF06F0EECF07F0EECFE3
:1007200008F0EFCF09F043EC12F009C0EDFF08C06C
:10073000EDFF07C0EDFF06C0EFFF390EDBCFE9FF8D
:10074000DB063A0EDBCFEAFF01E2DB06090EDBCF68
:10075000EFFF150EDB2A4BD995E1030EDBA61DD06A
:100760006F0EDF5C06E1C1D918E3150EDB285BDAFA
:1007700014D0780EDF5C09E0580EDF5C06E0620EF4
:10078000DF5C03E0420EDF5C08E1020EF36E160E42
:10079000F3CFDBFF02D0150EDB6A030EDB50100B2C
:1007A0000EE0040EDBCF14F0050EDB50D88014549D
:1007B00006E2060EDB5003E1040EDB5034DA95D975
:1007C0000AE2050EDBCFE7FF150EDB50E75E050EF4
:1007D000E7CFDBFF02D0050EDB6A040EDBCF14F09F
:1007E000160E45D9D880145414E2160EDBCFE6FF5E
:1007F000150EDBCFE6FF040EDBCFE6FF050EDB5068
:10080000E552E75CE552D880E754E552D880E754DA
:100810005FD9030EDB50010B0BE1080EDB5008E043
:10082000B2D801E08DD0080EDB50BED8080EDB6ACE
:10083000170EDB5007E088D9170EF1D903E1151C1C
:1008400001E17ED0160EDB5016E07ED9300EE66E4A
:100850009FD802E1151C74E077D9DFCFE6FF1BECCF
:1008600011F0E552E552E552F4CF15F00001F31C0A
:1008700002E1151C65E0050EDBCF14F0160EDB500F
:10088000D880145409E2050EDBCFE7FF160EDB50CB
:10089000E75E050EE7CFDBFF300EE66E050ECBD927
:1008A0004FE1390EDB2ADBCFE9FF3A0E01E3DB2A09
:1008B000DBCFEAFF090EEFCFDBFFDB500EE044D9C0
:1008C000090EADD902E1151C3BE0390EDB2ADBCF66
:1008D000E9FF3A0EEDE3DB2AEBD755D831E1160EEE
:1008E000DBCFE6FF080EC3D8E552E7245DD82ED053
:1008F000070EDB50030A1CE0010A14E0030A07E0BC
:100900007BD9DBCFEEFF020EDBCFEDFF1FD0F5D89A
:10091000196A17AE02D0186819682CD8BCD819C04B
:10092000EEFF14D0EAD817BE186824D8B4D80ED079
:1009300063D9DBCFEFFF0AD07BD905E1151C03E1BA
:10094000F368F46810D0FCD801E3DB2A79D945EFCD
:1009500000F0010EDBCF14F0020EDBCF15F014C057
:10096000F3FF15C0F4FF3B0EE15C02E2E16AE552E1
:10097000E16ECBD029D9020EABEF05F061D90800AA
:10098000F550DF6E1200200EE66E080E1BEF06F02B
:100990001BEC11F0E552E552E552F3CF14F0F4CF21
:1009A00015F00001F31C1200146E156AD950010FE6
:1009B0004DD91450EE261550ED221200185E000E8F
:1009C000195AF70E18C0DBFFF80E19C0DBFF18C06C
:1009D000E9FF19C0EAFF1200DBCFF4FFF350F45C2B
:1009E0001200DB50E76E040EE7CFDBFF12000A0EA9
:1009F000DBCF14F00B0EDBCF15F00C0EDBCF16F0B7
:100A00000D0EDBCF17F01450151016101710120032
:100A1000130EEECFDBFF140EEDCFDBFF130EDBCF9B
:100A200014F0140EDBCF15F00001800E1514120027
:100A3000F70EDBCF18F0F80EDBCF19F01200050E21
:100A4000DB50E66ED950130F01D9E552E750EE6E38
:100A5000ED6A12000A0EDBCF06F00B0EDBCF07F0BB
:100A60000C0EDBCF08F00D0EDBCF09F01200DBCF50
:100A7000E6FF150EDBCFE6FF050EDB50E552E7245F
:100A8000E552E7241200DB50CED8010EF36E060EBD
:100A9000F3CFDBFF1200EE50EFCFEAFFE96E16C096
:100AA000EEFF17C0EEFF18C0EEFF1200D9CFE6FF31
:100AB000DACFE6FFE1CFD9FFE2CFDAFF1200DFCFD6
:100AC000E6FFE66A7DEC12F0E552E552F3501200C3
:100AD000E76E080EE7CFDBFF1200EECF14F0EECF8B
:100AE00015F0EFCF16F0176A1200050EDBCF14F0E9
:100AF000150EDB50D88014541200010EDBCF16F017
:100B0000020EDBCF17F0186A1200E552E5CFDAFFCC
:100B1000E7CFD9FF12000A0E14C0DBFF0B0E15C081
:100B2000DBFF1200D9500A0F26EF06F0F36E070E16
:100B3000F3CFDBFF1200EECF14F0EFCF15F0120071
:100B4000010EDB2A020E1200FC0EDBCFE6FFFD0ECB
:100B5000DBCFE6FF1200145E000E155AF70E14C02C
:100B6000DBFFF80E15C0DBFF14C0E9FF15C0EAFF7C
:100B70001200DA20EA6EEF2AEECFF6FF000EEF2227
:100B8000EECFF7FFEF22EECFF8FF1200040EDBCF1F
:100B9000E6FF130EDB50E552E75C9ADFDB5004DF23
:100BA000060EDB501200090EDB500A0DF350DF2455
:100BB000D00FE76E090EE7CFDBFFBEEF04F0DB508E
:100BC000F36E050EECEF04F0F70EDBCF14F0F80E29
:100BD000DBCF15F01200DFCFE6FFC8EF04F028DF0F
:100BE000030EECDE6DEF05F01AEC00F0E552E55275
:100BF000E552E55200091200BDDEEE50EFCFEAFFEC
:100C0000E96E010E1200130EDB50F36E040EECEFD2
:100C100004F0040EDB50F36E090EECEF04F0DBCFB2
:100C2000E6FFC8EF04F0E76E050EE7CFDBFF12002A
:100C30008BDFEBEF05F0DBCFE6FF86DFF4EF05F0AF
:100C4000D950F90FE96EFF0EB9EF05F0E96E000E0D
:060C5000DA20EA6E12003A
:0A0C5600DACFE4FFE2CFDAFFE9CFC6
:100C6000E4FFEACFE4FFF6CFE4FFF7CFE4FFF5CFF0
:100C7000E4FFF3CFE4FFF4CFE4FFFACFE4FF00EEAC
:100C800000F0140EE80403E3EECFE4FFFBD700EE20
:100C900014F0070EE80403E3EECFE4FFFBD7E652BF
:100CA000F2A20CD0F2920001802B000E8123E66AA2
:100CB000400EE66EEFEC0AF0E552E552F2A475D074
:100CC000F29430EC0FF000018251831103E08207AF
:100CD000000E835B8451851103E08407000E855B61
:100CE0008851891104E08807000E895B02D022EC4C
:100CF0000BF00001A25152E00001865187114EE134
:100D0000190E866F876B040E8A192CE18B512AE12C
:100D100000019A519C251D6E9B519D211E6E1D50F8
:100D20009E251B6E1E509F211C6E1B50A02500018E
:100D30008C6F1C500001A12100018D6F020E0F0B62
:100D400005E0D8908D338C33E806FBE100018A6B17
:100D50008B6B7F0E8C5D020E8D5902E2818A25D04D
:100D6000819A23D04BDAF3CF1BF0F4CF1CF08AC06A
:100D7000E9FF8BC0EAFF010ED890E936EA36E806B3
:100D8000FBE19A0EE926000EEA221BC0EEFF1CC012
:100D9000EDFF00018A2B000E8B2307D00001A2512A
:100DA00004E000018607000E875BE55200EE1AF0B2
:100DB000070EE80403E3E5CFEDFFFBD700EE13F0E9
:100DC000140EE80403E3E5CFEDFFFBD7E5CFFAFF10
:100DD000E5CFF4FFE5CFF3FFE5CFF5FFE5CFF7FF74
:100DE000E5CFF6FFE5CFEAFFE5CFE9FFE5CFDAFF94
:100DF0001100D9CFE6FFE1CFD9FF060EE1260001B1
:100E0000846B856B866B876B8A6B8B6B2CEC0FF01E
:100E100038EC0FF046EC0FF073EC0FF08FEC0FF0A6
:100E2000ADEC0FF06AEC0FF00001806B816B80512C
:100E30008111FDE00001A65114E08CC0E6FF8DC0D9
:100E4000E6FF100E146E1E0E156E166A14C0E6FF35
:100E5000E66E16C0E6FFCFEC10F0176E050EE15EF1
:100E60001750030EDE6EDD6AD9CFE9FFDACFEAFF55
:100E7000EE50ED1036E082D9020EF3CFDBFF030E09
:100E8000F4CFDBFF020EDBCF14F0030EDBCF15F047
:100E900015340AE214509608000E155405E2DF06D8
:100EA000010E05E2DB0603D0030EDE6EDD6A0001F3
:100EB000A651DAE0020EDBCFE6FF030EDBCFE6FF42
:100EC000EE0E146E1D0E156E166A14C0E6FFE66E69
:100ED00016C0E6FFCFEC10F0176E050EE15E17505E
:100EE000C3D71E0EE66EE66A0F0EE66E270EE66E9E
:100EF00036EC0CF0E552E552E552E552030EDE6E9B
:100F0000DD6A00018851891165E0D9CFE9FFDACFA8
:100F1000EAFFEE50ED105EE031D9020EF3CFDBFFB9
:100F2000030EF4CFDBFF280EF36E040EF3CFDBFFCE
:100F3000050EDB6A020EDBCF14F0030EDBCF15F0DB
:100F4000040EDBCF16F0050EDBCF17F01750151887
:100F5000E8AE02D0153404D01450165C1550175862
:100F600004E3DF06010E01E2DB060001A65110E0FA
:100F7000040EDBCFE6FF050EDBCFE6FF020EDBCF74
:100F8000E6FF030EDBCFE6FFB10E146E1D0E14D08C
:100F9000030EDE6EDD6AA651B4E0040EDBCFE6FF81
:100FA000050EDBCFE6FF020EDBCFE6FF030EDBCF45
:100FB000E6FF900E146E1D0E156E166A14C0E6FF45
:100FC000E66E16C0E6FFCFEC10F0176E070EE15E7E
:100FD000175097D70001A6510FE07D0E146E1D0E1D
:100FE000156E166A14C0E6FFE66E16C0E6FFCFEC7B
:100FF00010F0E552E552E55222EC0BF0E66AE66AA3
:10100000E66A3F0EE66E94D8E552E552E552E552A7
:10101000140EE66EE66A5A0EE66EE66ABEEC0CF058
:10102000E552E552E552E552000188518911FCE193
:10103000E66AE66AE66A3F0EE66E7AD8E552E5525F
:10104000E552E5521E0EE66EE66A640EE66EE66A4C
:1010500036EC0CF0E552E552E552E55200018851BC
:101060008911FCE1E66AE66AE66A3F0EE66E60D840
:10107000E552E552E552E552580E146E1D0E156EFE
:10108000166A14C0E6FFE66E16C0E6FFCFEC10F05D
:10109000E552E552E552530E146E1D0E156E1450B6
:1010A00015103CE0E66AE66A800EE66E3F0EE66EDC
:1010B0003FD8E552E552E552E5520001A651EBE07A
:1010C0005DD8F3CF14F0F4CF15F0F3CFE6FFF4CFF3
:1010D000E6FF420E166E1D0E176E186A16C0E6FF6A
:1010E000E66E18C0E6FFCFEC10F0196E050EE15E5B
:1010F00019508CC0E6FF8DC0E6FF2C0E146E1D0E3D
:10110000156E166A14C0E6FFE66E16C0E6FFCFEC59
:1011100010F0176E050EE15E1750BDD7060EE15CAC
:1011200002E2E16AE552E16EE552E7CFD9FF120033
:10113000D9CFE6FFE1CFD9FF076A086AC80E096E6A
:10114000420E0A6EFB0EDBCF0CF0FC0EDBCF0DF077
:10115000FD0EDBCF0EF0FE0EDBCF0FF017EC0DF027
:10116000D7EC0DF008C084F009C085F0000184516F
:101170008511FCE1E552E7CFD9FF1200D9CFE6FF98
:10118000E1CFD9FF020EE126E66AE00EE66EFBEC47
:1011900009F0E552E552510EE66EE00EE66EFBEC0C
:1011A00009F0E552E5520A0EE66ED70EE66EA30E82
:1011B000E66E3D0EE66EBCDFE552E552E552E552C5
:1011C000020EE66EE00EE66E5BEC09F0E552E552CB
:1011D000F3CFDEFFF4CFDDFFDECF14F0DDCF15F06F
:1011E00014C0F3FF15C0F4FF020EE15C02E2E16AF5
:1011F000E552E16EE552E7CFD9FF1200D9CFE6FF05
:10120000E1CFD9FF020EE126C282C2A2FED7C350AF
:10121000186E196AC450166E176A086A010E096EB4
:1012200016C00DF017C00EF0AAEC0DF006501824F1
:10123000146E0750192014C0DEFFDD6EDECF14F0EF
:10124000DDCF15F014C0F3FF15C0F4FF020EE15C12
:1012500002E2E16AE552E16EE552E7CFD9FF120002
:10126000800EC76E280EC66EC56A130EC86E1200B9
:10127000D9CFE6FFE1CFD9FF1F0EC514FDE1C7505E
:10128000040BFAE1C580C5B0FED7FE0EDB50C96E77
:10129000C7B0FED7C5BCFED71F0EC514FDE1C750B1
:1012A000040BFAE1C584C5B4FED79E96000EE55244
:1012B000E7CFD9FF1200D9CFE6FFE1CFD9FF060E65
:1012C000E126040EDB6A0A0EF36E050EF3CFDBFF98
:1012D000FE0EDBCFE6FF5DEC11F0E552E76E040E8B
:1012E000E7CFDBFF050EDB06040EDB500EE0050E3C
:1012F000DBCF14F0000EE76E1418E8AE02D0143401
:1013000003D0E750D8801454E3E30A0EF36E050EC1
:10131000F3CFDBFFFD0EDBCFE6FFFE0EDBCFE6FFFC
:10132000C1EC0FF0E552E552020EF3CFDBFF030EE6
:10133000F4CFDBFF050EDB06030EDB500EE0050EDF
:10134000DBCF14F0000EE76E1418E8AE02D01434B0
:1013500003D0E750D8801454DDE3030EDB5002E0E5
:10136000DF6806D0020EDB50E76E010EE7CFDBFF31
:101370000A0EF36E050EF3CFDBFFFD0EDB28E66EE3
:10138000FE0EDBCFE6FFC1EC0FF0E552E552020E98
:10139000F3CFDBFF030EF4CFDBFF050EDB06030EFE
:1013A000DB500EE0050EDBCF14F0000EE76E1418D4
:1013B000E8AE02D0143403D0E750D8801454DDE3F3
:1013C000030EDB5003E0010EDB6803D0020EDB509E
:1013D000DF6EDECF14F0DDCF15F014C0F3FF15C0C3
:1013E000F4FF060EE15C02E2E16AE552E16EE552CD
:1013F000E7CFD9FF1200D9CFE6FFE1CFD9FF020E28
:10140000E126DF6ADE520A0EDD6EFE0EDBCFE6FF5E
:101410005DEC11F0E552DF6E010EDB06DF500EE0F1
:10142000010EDBCF14F0000EE76E1418E8AE02D008
:10143000143403D0E750D8801454E7E3DE520A0E88
:10144000DD6EFD0EDBCFE6FFE66AFE0EDBCFE6FFCC
:1014500082EC10F0E552E552E552DF6E010EDB063C
:10146000DF500EE0010EDBCF14F0000EE76E141813
:10147000E8AE02D0143403D0E750D8801454E1E32E
:10148000020EE15C02E2E16AE552E16EE552E7CF6D
:10149000D9FF1200D9CFE6FFE1CFD9FFE652DF6ACC
:1014A0001F0EC514FDE1C750040BFAE1C580C5B09D
:1014B000FED7FE0EDB50C96EC7B0FED7C5BCFED747
:1014C0001F0EC514FDE1C750040BFAE1DFCF14F085
:1014D000156A14BE1568FC0EDB501424E96EFD0E6F
:1014E000DB501520EA6EEF50C96EC7B0FED7C5BC01
:1014F000FED7DF50DF2A146E156A14BE1568FC0E85
:10150000DB501424E96EFD0EDB501520EA6EEF501F
:10151000D7E11F0EC514FDE1C750040BFAE1C584E5
:10152000C5B4FED79E96000EE552E552E7CFD9FF2F
:101530001200D9CFE6FFE1CFD9FFE652DF6A1F0ED6
:10154000C514FDE1C750040BFAE1C580C5B0FED754
:10155000FE0EDB28C96EC7B0FED7C5BCFED71F0E76
:10156000C514FDE1C750040BFAE1C586C7A0FED73C
:10157000DFCF14F0156A14BE1568FC0EDB5014247E
:10158000E96EFD0EDB501520EA6EC9CFEFFFC950A2
:1015900002E0C59A01D0C58AC588C5B8FED7DF501C
:1015A000DF2A146E156A14BE1568FC0EDB50142475
:1015B000E96EFD0EDB501520EA6EEF50D0E11F0EF4
:1015C000C514FDE1C750040BFAE1C584C5B4FED7CC
:1015D0009E96000EE552E552E7CFD9FF1200D9CF13
:1015E000E6FFE1CFD9FFE652DF6A1F0EC514FDE129
:1015F000C750040BFAE1C580C5B0FED7FE0EDB5024
:10160000C96EC7B0FED7C5BCFED71F0EC514FDE11D
:10161000C750040BFAE1FD0EDB50C96EC7B0FED710
:10162000C5BCFED71F0EC514FDE1C750040BFAE17F
:10163000C584C5B4FED79E96DF50E552E552E7CF8C
:04164000D9FF1200BC
:0C164400BE6ACF0EBD140009BD6EBB6A6B
:10165000CF0EBA140009BA6E0001886B896B1200B4
:10166000D9CFE6FFE1CFD9FFE150FD0FE96EFF0EC4
:10167000DA20EA6E010EEE1825E1ED5023E1FB0EB3
:10168000DBCF14F0FC0EDBCF15F0D89015321432FE
:10169000D890153214321450BE6E030EE76EFB0E56
:1016A000DBCF14F0FC0EE7501416156A1450030B30
:1016B000F36EF346F346F346F346CF0EBD14F31034
:1016C000BD6E2DD0D950FD0FE96EFF0EDA20EA6E07
:1016D000020EEE1824E1ED5022E1FB0EDBCF14F0F8
:1016E000FC0EDBCF15F0D89015321432D89015329D
:1016F00014321450BB6E030EE76EFB0EDBCF14F0FA
:10170000FC0EE7501416156A1450030BF36EF346E3
:10171000F346F346F346CF0EBA14F310BA6EE55211
:10172000E7CFD9FF1200D9CFE6FFE1CFD9FFFD0EF9
:10173000DBCF08F0FE0EDBCF09F004EC0DF0D7ECA8
:101740000DF008C0A8F009C0A9F00001093408E2B2
:10175000A8513208000EA95503E2320EA86FA96BFA
:10176000A8C014F0A9C015F0050E1502F3CF15F0AE
:101770001402F3CF14F0F4501526F3CFE6FF15C092
:10178000E6FF010EE66EE66A6BDFE552E552E552D2
:10179000E552A8C014F0A9C015F0050E1502F3CF4C
:1017A00015F01402F3CF14F0F4501526F3CFE6FF32
:1017B00015C0E6FF020EE66EE66A52DFE552E5521C
:1017C000E552E552E552E7CFD9FF1200D9CFE6FF47
:1017D000E1CFD9FFF70EDB50E8B0808CE8A0809C09
:1017E000F90EDB50E8B0808EE8A0809EFB0EDBCFC8
:1017F00088F0FC0EDBCF89F0FD0EDBCF14F0FE0E7F
:10180000DBCF15F0050E1502F3CF15F01402F3CF60
:1018100014F0F4501526F3CFE6FF15C0E6FF010ED5
:10182000E66EE66A1DDFE552E552E552E552FD0E31
:10183000DBCF14F0FE0EDBCF15F0050E1502F3CF53
:1018400015F01402F3CF14F0F4501526F3CFE6FF91
:1018500015C0E6FF020EE66EE66A02DFE552E552CB
:10186000E552E552E552E7CFD9FF1200D9CFE6FFA6
:10187000E1CFD9FF809C809E780E086E096AFD0E2C
:10188000DBCF0DF0FE0EDBCF0EF0AAEC0DF006C0A4
:1018900014F007C015F006C008F007C009F0FB0EF1
:1018A000DBCF0DF0FC0EDBCF0EF084EC0DF008C0AA
:1018B00088F009C089F0FB0EDBCFE6FFFC0EDBCF22
:1018C000E6FF31DFE552E5520001A6510FE0470E79
:1018D000146E1E0E156E166A14C0E6FFE66E16C074
:1018E000E6FFCFEC10F0E552E552E552E552E7CFC6
:1018F000D9FF1200D9CFE6FFE1CFD9FF809C808EBF
:10190000380E086E096AFD0EDBCF0DF0FE0EDBCF40
:101910000EF0AAEC0DF006C014F007C015F006C0DA
:1019200008F007C009F0FB0EDBCF0DF0FC0EDBCF9B
:101930000EF084EC0DF008C088F009C089F0FB0EB1
:10194000DBCFE6FFFC0EDBCFE6FFEDDEE552E55236
:101950000001A6510FE0370E146E1E0E156E166AAA
:1019600014C0E6FFE66E16C0E6FFCFEC10F0E552BD
:10197000E552E552E552E7CFD9FF1200D9CFE6FF95
:10198000E1CFD9FF808C809E380E086E096AFD0E6B
:10199000DBCF0DF0FE0EDBCF0EF0AAEC0DF006C093
:1019A00014F007C015F006C008F007C009F0FB0EE0
:1019B000DBCF0DF0FC0EDBCF0EF084EC0DF008C099
:1019C00088F009C089F0FB0EDBCFE6FFFC0EDBCF11
:1019D000E6FFA9DEE552E5520001A6510FE0260E12
:1019E000146E1E0E156E166A14C0E6FFE66E16C063
:1019F000E6FFCFEC10F0E552E552E552E552E7CFB5
:041A0000D9FF1200F8
:0C1A0400019E08D0019E09AE05D0086CC0
:101A1000091EE86A0922018E09C003F008C002F01D
:101A2000136A126A8E0E046E056A22EF0EF0016AC6
:101A30005EEC0EF076EC0EF001B606EF0EF001A2B1
:101A400005D001B806EF0EF00DEF0EF001AA05D09B
:101A500001B006EF0EF00DEF0EF001B002D001A8BC
:101A600002D019EF0EF0056A0F500A24046EE86ADE
:101A700005227E0E045EE86A055A126A136A026A3B
:101A8000036A0E500902F4CF03F0F3CF02F00D50B9
:101A90000902F3501326F4500222000E03220E50C6
:101AA0000802F3501326F4500222000E03220C50B9
:101AB0000902F3501226F4501322000E02220322D0
:101AC0000D500802F3501226F4501322000E022289
:101AD00003220E500702F3501226F4501322000E78
:101AE000022203220C500802F4501226000E132288
:101AF000022203220D500702F4501226000E132278
:101B00000222032222EF0EF0006A0EAE8DEF0DF0DE
:101B10000D6C0E1EE86A0E22001E09AE95EF0DF048
:101B2000086C091EE86A0922001E67EC12F009BE63
:101B3000A5EF0DF000AE000C086C091EE86A092242
:101B4000046C051EE86A0522000C00BE9CEF0DF037
:101B50000188FF0C09C013F008C012F008500D02F4
:101B6000F4CF07F0F3CF06F009500E02F4CF09F0DE
:101B7000F3CF08F00D02F3500726F4500822E86A6C
:101B8000092212500E02F3500726F4500822E86A88
:101B900009220EAED0EF0DF01250085E1350095A14
:101BA00013AE000C0D50085E0E50095A000C016A6D
:101BB0005EEC0EF001B6E1EF0DF001A20ED001B423
:101BC00005D07F0E096EFF0E086E1FD0800E096EC5
:101BD000086A1BD0096A086A18D001B0FBD78F0EBB
:101BE0000A60EDD77E0E0A64F5D78E0E0A5C05E01A
:101BF000D890093208320A2AF8D701A406D0086C16
:101C0000091EE86A092209AEE5D712007F0E0A6EA6
:101C1000FF0E096E086E076E12007F0E01BEFF0EEA
:101C20000A6E02D07F0E0A6E800E096E086A076A7D
:101C3000F3D701AE04D0800E0A6E096AF7D70A6A9C
:101C4000096AF4D70350021013101210F8E005BE11
:101C5000F0D703BE0CD004500510EBE0D89012363C
:101C60001336023603360406D8A00506F2D705500F
:101C7000D4E10428D2E012AE11D07F0E121402E19A
:101C800013A00CD0132AE86A0222032207E3D880AB
:101C9000033202321332042A0428BFE00450C9E0A0
:101CA00013C007F002C008F00334096E04300A6E56
:101CB00009320A9E01BE0A8E0CEF0EF009360A3672
:101CC00002E30184017E06E101800A6A096A086A6A
:101CD000076A12000A2803E0D88009321200D8905F
:101CE000093202E101821200018612000E360F361F
:101CF00002E3018C017E06E101880F6A0E6A0D6A1B
:101D00000C6A12000F2803E0D8800E321200D8901F
:081D10000E32EAE1018A120023
:081D18005541525420696E6927
:101D20007469616C69736564200D0A0042617474A2
:101D30006572792076616C7565203A202564200DE6
:101D40000A0044697374616E6365203A202564203B
:101D50000D0A004665757200526F7574696E6520D4
:101D600066696E69736865642C20676F696E6720A9
:101D7000696E746F206C6F6F70200D0A0053746F62
:101D80007070696E67206D6F746F7273200D0A003A
:101D90004D656173757265203A2025642C2074614D
:101DA00072676574203A204D4158202564200D0A41
:101DB000004D656173757265203A2025642C20748E
:101DC0006172676574203A204D4158202564202CAB
:101DD0002044454352454153494E472053414645CF
:101DE000545920434F554E544552200D0A004D651D
:101DF0006173757265203A2025642C2074617267C6
:101E00006574203A204D494E20313530200D0A00AE
:101E100042617474657279206C6576656C203A2035
:101E20002564200D0A005475726E696E6720726910
:101E3000676874200D0A005475726E696E67206CB5
:101E4000656674200D0A00476F696E6720666F72C1
:081E500077617264200D0A00A5
:081E5800D388D38AD38C120059
:101E6000ABC014F01450D76E0001AA51D66E120008
:101E7000D59AD59CD58ED5860001DF0EAA6FB10EFE
:101E8000AB6FEEDF0001010EA56F1200CA84FC0EDD
:101E9000CA140209CA6E7C0ECB6EF00EBD140C097A
:101EA000BD6EBE6ACF0EBD140009BD6EF00EBA1431
:101EB0000C09BA6EBB6ACF0EBA140009BA6E929CB6
:101EC000929E949294940001886B896B0001010E9C
:101ED000A46F1200F19CF288F28AF28CF28E00015B
:101EE000010EA36F1200939AC198C19AF00EC1140B
:101EF0000C09C16EC30EC2140809C26EF80EC014DC
:101F00000409C06EC70EC0141009C06EC08EC28016
:101F100000018C6B8D6B0001010EA26F1200B89650
:101F2000AC84AC98330EAF6E949CAB8EAC8A9E980A
:101F30009D98AB88180E146E1D0E156E166A14C08F
:101F4000E6FFE66E16C0E6FFCFEC10F0E552E55274
:101F5000E5520001010EA66F120094869488800E4F
:101F6000C76E280EC66EC56A130EC86EE668400EB0
:101F7000E66EEFEC0AF0E552E5520001010EA76FA4
:021F800012004D
:0E1F8200D9CFE6FFDACFE6FFE1CFD9FFE2CFFD
:101F9000DAFFC4EC12F0C580C5A003D0FDD7C5B0F0
:101FA000FED7A1B63BD0FD0E57D804E0C584C5B41A
:101FB000FED71ED0C5BC3DD0FC0E4ED804E0C58473
:101FC000C5B4FED715D0C5BC2FD0C582C5A203D0DD
:101FD000FDD7C5B2FED7A1B621D0FD0EDB28E66E37
:101FE0009FEC11F0E552000905E0C584C5B4FED7A9
:101FF000FD0E23D0C5BC14D0C586C5B6FED7C58A94
:10200000C588C5A803D0FDD7C5B8FED7C584C5A46B
:1020100003D0FDD7C5B4FED7A1A612D0F3680ED069
:10202000C584C5B4FED703D0C584C5B4FED7FE0EA3
:1020300004D0C584C5B4FED7FE0EF36EF46806D096
:10204000C950146E156AF36E15C0F4FFE552E5CF62
:10205000DAFFE7CFD9FF1200DBCFE6FF9FEC11F0EC
:06206000E5520009120028
:0A2066000E0EF66E000EF76E000E6F
:10207000F86E00010900F550956F0900F550966F54
:1020800003E1956701D03DD00900F550906F09003C
:10209000F550916F0900F550926F09000900F55055
:1020A000E96E0900F550EA6E090009000900F550D3
:1020B000936F0900F550946F09000900F6CF97F06F
:1020C000F7CF98F0F8CF99F090C0F6FF91C0F7FFE6
:1020D00092C0F8FF0001935302E1945307E0090016
:1020E000F550EE6E9307F8E29407F9D797C0F6FF24
:1020F00098C0F7FF99C0F8FF00019507000E965BA6
:04210000BFD7120033
:0C210400D9CFE6FFDACFE6FFE1CFD9FF2C
:10211000E2CFDAFFC4EC12F0C580C5A003D0FDD732
:10212000C5B0FED7A1B62BD0FD0E32D804E0C584D1
:10213000C5B4FED711D0C5BC15D0FC0E29D804E01B
:10214000C584C5B4FED708D0C5BC08D0FB0E20D8C6
:102150000EE0C584C5B4FED7FD0E14D0C584C5B449
:10216000FED703D0C584C5B4FED7FE0E0BD0C58400
:10217000C5A403D0FDD7C5B4FED7A1A602D0FF0EDB
:1021800001D0000EE552E5CFDAFFE7CFD9FF12000C
:0E219000DBCFE6FF9FEC11F0E55200091200D4
:02219E00D9CF97
:1021A000E6FFDACFE6FFE1CFD9FFE2CFDAFFE65272
:1021B000E652E652E652D950FB0F146EFF0EDA20BB
:1021C000156E14C0DEFFDD6EDECFE6FFDDCFE6FF6D
:1021D000FB0EDBCFE6FFFC0EDBCFE6FFFD0EDBCF19
:1021E000E6FFACC0E6FFADC0E6FF30EC00F0146ED9
:1021F000070EE15C02E2E16AE552E16E1450020E64
:10220000F3CFDBFF030EF4CFDBFF020EDBCF14F0C6
:10221000030EDBCF15F014C0F3FF15C0F4FF040E5E
:10222000E15C02E2E16AE552E16EE552E5CFDAFFF8
:06223000E7CFD9FF120008
:0A223600D9CFE6FFDACFE6FFE1CFD3
:10224000D9FFE2CFDAFFFB0EDBCF14F0FC0EDBCFC1
:1022500015F00001800E15141AE1FB0EDBCFE9FF2B
:10226000FC0EDBCFEAFFEECFF3FFEDCFF4FFEE2A5B
:10227000000EEF22F3CFE9FFF4CFEAFFFD0EDBCF34
:10228000EFFFEF50156AF36E15C0F4FF10D0FB0E90
:10229000DB50FE0806E1FD0EDBCFE6FFADEC12F0F1
:1022A00005D0FD0EDBCFE6FF03EC00F0E552E55272
:0A22B000E5CFDAFFE7CFD9FF1200F7
:0622BA00D9CFE6FFDACFE8
:1022C000E6FFE1CFD9FFE2CFDAFFC4EC12F0C58020
:1022D000C5A003D0FDD7C5B0FED7A1B61FD027D863
:1022E00004E1C584C5B4FED70FD0C5AC0FD0C582FC
:1022F000C5A203D0FDD7C5B2FED7A1B60FD017D85F
:10230000F4E1C584C5B4FED7FD0E0BD0C584C5A4C9
:1023100003D0FDD7C5B4FED7A1A602D0FF0E01D0D1
:10232000000EE552E5CFDAFFE7CFD9FF1200FD0E30
:0E233000DBCFE6FF9FEC11F0E552FF08120034
:02233E00D9CFF5
:10234000E6FFDACFE6FFE1CFD9FFE2CFDAFFFD0EFD
:10235000DB50C96EC6AE02D0FF0E24D00F0EC614DD
:1023600008080FE00F0EC6140B080BE0C6889EA6E7
:10237000FED7C750040B03E1C750010B10E0000E5D
:1023800011D00F0EC614080804E00F0EC6140B0877
:1023900009E1C7B0FED7C4EC12F0C5AC02D0FE0E06
:1023A00001D0000EE552E5CFDAFFE7CFD9FF1200EA
:1023B00006500B02F3CF02F0F4CF03F00C02F350FF
:1023C0000326000EF420046E06500D02F35004267E
:1023D000000EF420056E06500E02F350052607503D
:1023E0000B02F3500326F4500422000E052207507E
:1023F0000C02F3500426F450052207500D02F3504E
:10240000052608500B02F3500426F450052208500C
:102410000C02F350052609500B02F350052612005A
:10242000FE0EE3CFE9FFFF0EE3CFEAFFF36AF46AA3
:10243000EE5203E0F34AF42AFBD71200FF0EE3CF7B
:10244000F8FFE552FF0EE3CFF7FFE552FF0EE3CFB3
:10245000F6FFE552E66AE66AE66A0900F55209E027
:10246000FD0EE32A05E1FE0EE32A02E1FF0EE32A58
:10247000F4D7FD0EE3CF07F0FE0EE3CF08F0FF0E1A
:06248000E3CF09F0120099
:0A248600056A046A036A026A200E68
:10249000E76ED89006360736083609360236033618
:1024A000043605360B50025C0C5003580D5004588E
:1024B0000E50055809E30B50025E0C50035A0D50A4
:0E24C000045A0E50055A062AE72EE4D71200E1
:0224CE00056A9D
:1024D000046A100EE76ED8900836093604360536C1
:1024E0000D50045C0E50055805E30D50045E0E506F
:0A24F000055A082AE72EF0D7120063
:0624FA00F36AF46AFF0E14
:10250000E124E96EFF0EE220EA6EED6607D02F0EA1
:0E251000EF6404D03A0EEF6001D0F32A1200FF
:02251E00000EAD
:10252000F36E00EE00F0060E01D81200EA6002D051
:0E253000EE6AFCD7F350E9601200EE6AFCD7A9
:02253E0015EE98
:1025400000F025EE00F0F86A019C33EC10F0CBECC3
:0A25500012F0F9EC06F0FBD71200C0
:06255A00FF0EE350ACBAD5
:1025600004D0AF6AAB8EAC8A949CACA2FED7AD6EA1
:06257000F36EF46A120094
:0A257600303132333435363738394E
:0725800061626364656600FF
:082588001F0EC514FDE1C75050
:06259000040BFAE1120049
:02259600120031
:02259800FEFF44
:06259A000000000000003B
:0A25A0000000000000000000000031
:0625AA000000000000002B
:020000040030CA
:0100010008F6
:010003001EDE
:010005008179
:0100060001F8
:00000001FF
