:020000040000FA
:06000000B6EF04F012004F
:020006000000F8
:06000800F9EF01F0120007
:02000E00800E62
:10001000C76E280EC66EC56A130EC86E1200D9CF01
:10002000E6FFE1CFD9FF1F0EC514FDE1C750040B59
:10003000FAE1C580C5B0FED7FE0EDB50C96EC7B071
:10004000FED7C5BCFED71F0EC514FDE1C750040B7B
:10005000FAE1C584C5B4FED79E96000EE552E7CFFF
:10006000D9FF1200D9CFE6FFE1CFD9FF060EE12676
:10007000040EDB6A0A0EF36E050EF3CFDBFFFE0EF5
:10008000DBCFE6FFAEEC03F0E552E76E040EE7CF00
:10009000DBFF050EDB06040EDB500EE0050EDBCFAA
:1000A00014F0000EE76E1418E8AE02D0143403D03A
:1000B000E750D8801454E3E30A0EF36E050EF3CF35
:1000C000DBFFFD0EDBCFE6FFFE0EDBCFE6FFA0EC95
:1000D00002F0E552E552020EF3CFDBFF030EF4CF40
:1000E000DBFF050EDB06030EDB500EE0050EDBCF5B
:1000F00014F0000EE76E1418E8AE02D0143403D0EA
:10010000E750D8801454DDE3030EDB5002E0DF68D3
:1001100006D0020EDB50E76E010EE7CFDBFF0A0EC2
:10012000F36E050EF3CFDBFFFD0EDB28E66EFE0E51
:10013000DBCFE6FFA0EC02F0E552E552020EF3CF72
:10014000DBFF030EF4CFDBFF050EDB06030EDB50F7
:100150000EE0050EDBCF14F0000EE76E1418E8AECB
:1001600002D0143403D0E750D8801454DDE3030EDA
:10017000DB5003E0010EDB6803D0020EDB50DF6EC4
:10018000DECF14F0DDCF15F014C0F3FF15C0F4FF7F
:10019000060EE15C02E2E16AE552E16EE552E7CF6C
:1001A000D9FF1200D9CFE6FFE1CFD9FF020EE12639
:1001B000DF6ADE520A0EDD6EFE0EDBCFE6FFAEEC2E
:1001C00003F0E552DF6E010EDB06DF500EE0010E9C
:1001D000DBCF14F0000EE76E1418E8AE02D0143432
:1001E00003D0E750D8801454E7E3DE520A0EDD6EE8
:1001F000FD0EDBCFE6FFE66AFE0EDBCFE6FF61EC2D
:1002000003F0E552E552E552DF6E010EDB06DF50EA
:100210000EE0010EDBCF14F0000EE76E1418E8AE0E
:1002200002D0143403D0E750D8801454E1E3020E16
:10023000E15C02E2E16AE552E16EE552E7CFD9FF07
:100240001200D9CFE6FFE1CFD9FFE652DF6A1F0ED9
:10025000C514FDE1C750040BFAE1C580C5B0FED757
:10026000FE0EDB50C96EC7B0FED7C5BCFED71F0E51
:10027000C514FDE1C750040BFAE1DFCF14F0156A95
:1002800014BE1568FC0EDB501424E96EFD0EDB5025
:100290001520EA6EEF50C96EC7B0FED7C5BCFED7B9
:1002A000DF50DF2A146E156A14BE1568FC0EDB5091
:1002B0001424E96EFD0EDB501520EA6EEF50D7E1F5
:1002C0001F0EC514FDE1C750040BFAE1C584C5B487
:1002D000FED79E96000EE552E552E7CFD9FF1200F9
:1002E000D9CFE6FFE1CFD9FFE652DF6A1F0EC51472
:1002F000FDE1C750040BFAE1C580C5B0FED7FE0E84
:10030000DB28C96EC7B0FED7C5BCFED71F0EC5140B
:10031000FDE1C750040BFAE1C586C7A0FED7DFCFC9
:1003200014F0156A14BE1568FC0EDB501424E96E37
:10033000FD0EDB501520EA6EC9CFEFFFC95002E079
:10034000C59A01D0C58AC588C5B8FED7DF50DF2A57
:10035000146E156A14BE1568FC0EDB501424E96E89
:10036000FD0EDB501520EA6EEF50D0E11F0EC514D4
:10037000FDE1C750040BFAE1C584C5B4FED79E96D3
:10038000000EE552E552E7CFD9FF1200D9CFE6FFC4
:10039000E1CFD9FFE652DF6A1F0EC514FDE1C75059
:1003A000040BFAE1C580C5B0FED7FE0EDB50C96E66
:1003B000C7B0FED7C5BCFED71F0EC514FDE1C750A0
:1003C000040BFAE1FD0EDB50C96EC7B0FED7C5BC09
:1003D000FED71F0EC514FDE1C750040BFAE1C5841A
:1003E000C5B4FED79E96DF50E552E552E7CFD9FF60
:0203F0001200F9
:0E03F200DACFE4FFE2CFDAFFE9CFE4FFEACF93
:10040000E4FFF6CFE4FFF7CFE4FFF5CFE4FFF3CF4F
:10041000E4FFF4CFE4FFFACFE4FF00EE00F0100EAB
:10042000E80403E3EECFE4FFFBD700EE14F0020E86
:10043000E80403E3EECFE4FFFBD7E652F2A205D0D7
:10044000F292010E0001806F816BF2A445D0F2940C
:10045000F4EC03F000018251831103E08207000EE7
:10046000835B8451851103E08407000E855B040ED5
:10047000881925E1895123E18A518C25126E8B510F
:100480008D21136E12508E25106E13508F21116E18
:1004900010509025926F11509121936F040E0D6EA4
:1004A0000E6A92C008F093C009F06AEC04F008C02C
:1004B00092F009C093F00001886B896B03D0882B00
:1004C000000E89238651871104E08607000E875BA2
:1004D00003D0070E866F876BE55200EE15F0020E13
:1004E000E80403E3E5CFEDFFFBD700EE0FF0100EBD
:1004F000E80403E3E5CFEDFFFBD7E5CFFAFFE5CF57
:10050000F4FFE5CFF3FFE5CFF5FFE5CFF7FFE5CF4C
:10051000F6FFE5CFEAFFE5CFE9FFE5CFDAFF11000F
:10052000F0EC03F0FBEC03F029EC04F0939A0001EB
:1005300082518311FCE1817A640E826F836BF7D75D
:10054000D9CFE6FFDACFE6FFE1CFD9FFE2CFDAFF7E
:10055000C4EC04F0C580C5A003D0FDD7C5B0FED75C
:10056000A1B63BD0FD0E57D804E0C584C5B4FED774
:100570001ED0C5BC3DD0FC0E4ED804E0C584C5B429
:10058000FED715D0C5BC2FD0C582C5A203D0FDD7DC
:10059000C5B2FED7A1B621D0FD0EDB28E66E31EC48
:1005A00004F0E552000905E0C584C5B4FED7FD0E90
:1005B00023D0C5BC14D0C586C5B6FED7C58AC588AC
:1005C000C5A803D0FDD7C5B8FED7C584C5A403D040
:1005D000FDD7C5B4FED7A1A612D0F3680ED0C5844E
:1005E000C5B4FED703D0C584C5B4FED7FE0E04D073
:1005F000C584C5B4FED7FE0EF36EF46806D0C950AC
:10060000146E156AF36E15C0F4FFE552E5CFDAFFFC
:10061000E7CFD9FF1200DBCFE6FF31EC04F0E55263
:0406200000091200BB
:0C062400060EF66E000EF76E000EF86E6B
:1006300000010900F550996F0900F5509A6F03E128
:10064000996701D03DD00900F550946F0900F5502D
:10065000956F0900F550966F09000900F550E96E95
:100660000900F550EA6E090009000900F550976F7E
:100670000900F550986F09000900F6CF9BF0F7CFFD
:100680009CF0F8CF9DF094C0F6FF95C0F7FF96C0A0
:10069000F8FF0001975302E1985307E00900F55075
:1006A000EE6E9707F8E29807F9D79BC0F6FF9CC05B
:1006B000F7FF9DC0F8FF00019907000E9A5BBFD7B6
:0206C000120026
:0E06C200D9CFE6FFDACFE6FFE1CFD9FFE2CFD6
:1006D000DAFFC4EC04F0C580C5A003D0FDD7C5B0D7
:1006E000FED7A1B62BD0FD0E32D804E0C584C5B428
:1006F000FED711D0C5BC15D0FC0E29D804E0C584A6
:10070000C5B4FED708D0C5BC08D0FB0E20D80EE07B
:10071000C584C5B4FED7FD0E14D0C584C5B4FED7BC
:1007200003D0C584C5B4FED7FE0E0BD0C584C5A4C6
:1007300003D0FDD7C5B4FED7A1A602D0FF0E01D0CD
:10074000000EE552E5CFDAFFE7CFD9FF1200DBCF8D
:0C075000E6FF31EC04F0E5520009120055
:04075C00D9CFE6FF0C
:10076000DACFE6FFE1CFD9FFE2CFDAFFC4EC04F045
:10077000C580C5A003D0FDD7C5B0FED7A1B61FD098
:1007800027D804E1C584C5B4FED70FD0C5AC0FD0BF
:10079000C582C5A203D0FDD7C5B2FED7A1B60FD082
:1007A00017D8F4E1C584C5B4FED7FD0E0BD0C584BF
:1007B000C5A403D0FDD7C5B4FED7A1A602D0FF0EB5
:1007C00001D0000EE552E5CFDAFFE7CFD9FF1200E6
:1007D000FD0EDBCFE6FF31EC04F0E552FF0812001E
:1007E000D388D38AD38C1200000E00019E15D76ED9
:1007F0009E51D66E1200D59AD59CD58ED586000115
:10080000DF0E9E6FB10E9F6FF4EF03F0CA84FC0EF3
:10081000CA140209CA6E7C0ECB6EF00EBD140C0910
:10082000BD6EBE6ACF0EBD140009BD6EF00EBA14C7
:100830000C09BA6EBB6ACF0EBA140009BA6E120068
:10084000B886AC98670EAF6E948C9E98AB8EAC8ACF
:100850001200F19CF288F28AF28CF28E12001200E1
:02086000120084
:0E086200D9CFE6FFDACFE6FFE1CFD9FFE2CF34
:10087000DAFFFD0EDB50C96EC6AE02D0FF0E24D0EB
:100880000F0EC61408080FE00F0EC6140B080BE07D
:10089000C6889EA6FED7C750040B03E1C750010BC4
:1008A00010E0000E11D00F0EC614080804E00F0E61
:1008B000C6140B0809E1C7B0FED7C4EC04F0C5AC00
:1008C00002D0FE0E01D0000EE552E5CFDAFFE7CFF1
:0408D000D9FF12003A
:0C08D400006A0EAE73EF04F00D6C0E1EF7
:1008E000E86A0E22001E09AE7BEF04F0086C091EB8
:1008F000E86A0922001E90EC04F009BE8BEF04F0B8
:1009000000AE000C086C091EE86A0922046C051E82
:10091000E86A0522000C00BE82EF04F00188FF0C9B
:10092000056A046A100EE76ED89008360936043658
:1009300005360D50045C0E50055805E30D50045E5D
:0C0940000E50055A082AE72EF0D71200CE
:04094C00000EF36E38
:1009500000EE00F0060E01D81200EA6002D0EE6A46
:0C096000FCD7F350E9601200EE6AFCD7EF
:04096C0015EE00F094
:1009700025EE00F0F86A019C12EC03F0CBEC04F0D9
:0809800090EC02F0FBD712001D
:080988001F0EC514FDE1C7506C
:06099000040BFAE1120065
:0209960012004D
:020000040030CA
:0100010008F6
:010003001EDE
:010005008179
:0100060001F8
:00000001FF
