:020000040000FA
:06000000C4EF11F0120034
:020006001200E6
:060008002BEF06F01200D0
:02000E000300ED
:10001000ED2300009F00000006000000E423000024
:100020009600000009000000E2230000A900000083
:0400300002000000CA
:0C00340056EC05F0FB0EDBCFF3FFDB0603
:10004000F35000090AE0A4EC05F0FA0E0FEC06F0FC
:10005000F3E1151CF1E1010E01D0000E85EF05F072
:1000600056EC05F03B0EE12402E3E168E652E16E56
:10007000010EDB6A020EDB6AF90EDBCFF6FFFA0E29
:10008000DBCFF7FFFB0EDBCFF8FF0800F550DF6E8C
:10009000DF5002E1A9EF04F0250EDF5C02E09CEFE7
:1000A00004F0030EDB6A040EDB6A050EDB6A060E43
:1000B000DB6A070EDB6ABEEC04F02D0EDF5C0CE0A1
:1000C0002B0EDF5C09E0200EDF5C06E0230EDF5C18
:1000D00003E0300EDF5C1AE1DF50300A14E0130A4F
:1000E0000FE0030A0AE00B0A05E0060AE4E1030E4A
:1000F000DB80E1D7030EDB82DED7030EDB84DBD7A8
:10010000030EDB86D8D7030EDB88D5D72A0EDF5C3B
:100110001BE1BAEC04F008EC05F010E0030EDB8004
:1001200008680968130EDBCF0DF0140EDBCF0EF05C
:100130001FEC0DF0040E06C0DBFF03D0130EF1EC34
:1001400004F0BEEC04F00BD0090EDB6A5FEC05F0A6
:1001500003E0D3EC05F0FAD7090EF1EC04F0030E3E
:10016000DBB0DB982E0EDF5C1BE1BEEC04F02A0E48
:10017000DF5C0BE1BAEC04F008EC05F003E1130ED0
:1001800043EC05F0BEEC04F00BD0090EDB6A5FEC2B
:1001900005F003E0D3EC05F0FAD7090E43EC05F0C7
:1001A000680EDF5C07E1BEEC04F0680EDF5C1DE169
:1001B000030E18D0740EDF5C17E07A0EDF5C14E0DB
:1001C000480EDF5C06E0540EDF5C03E05A0EDF5C95
:1001D00002E1020E07D06C0EDF5C03E06A0EDF5C0A
:1001E00004E1010E96EC05F0C9DBDF506E0A01E177
:1001F0007FD31E0A01E192D1200A01E18FD13F0A8B
:1002000001E149D11A0A01E146D10D0A01E143D1C8
:10021000200A01E140D13A0A01E13DD1200A01E181
:100220003AD1260A01E135D10D0A01E132D11A0A8B
:1002300001E1D9D0200A4AE0300A1FE0460A0EE068
:10024000250A01E083D3D950F90FE96EFF0EDA20B9
:10025000EA6E010EEE5E000EEE5AEE5AA4EC05F0C8
:10026000250EE66E95DB03E1151C01E169D3A0ECD8
:1002700005F001E26BD3DB2A69D3080EDB6A040EBA
:10028000DB50010806E2040EDB0468EC05F0DB50ED
:100290008BDB080EDB5009E0030EDB50010B05E1A0
:1002A00072DB01E04DD3080EDB6A64DBEFCFDFFFCA
:1002B00018EC06F003E1151C01E142D3A0EC05F0B7
:1002C00001E3DB2A60DB01E141D33AD3070EDB50C7
:1002D00002080FE1E4EC05F0030EABEC05F00E0EA6
:1002E000EECFDBFF0F0EEECFDBFF100EEECFDBFF0E
:1002F00020D0F70EDBCF17F0F80EDBCF18F0020E90
:10030000175E000E185AF70E17C0DBFFF80E18C064
:10031000DBFF17C0E9FF18C0EAFF9BEC05F0166A87
:100320000E0E14C0DBFF0F0E15C0DBFF100E16C043
:10033000DBFF0E0EDBCFE6FF0F0EDBCFE6FF100E6E
:10034000DBCFE6FF43EC11F0E552E552E552130E28
:1003500007C0DBFF140E08C0DBFF060EDB5005E014
:10036000130EDFEC05F001E26ADB03EC06F002E2BB
:10037000130E37DBC6EC05F006E0040EDFEC05F0EB
:1003800002E2050E2EDB030EDBB005D0FCDA01E045
:10039000D7D2080EDB6A090EDB6A0E0EDBCFF6FF42
:1003A0000F0EDBCFF7FF100EDBCFF8FF0800F55084
:1003B000DF6EDF5014E009EC06F011E218EC06F0F5
:1003C00003E1151C01E1BCD2BBDB01E3DB2A090E12
:1003D000DB2AD9500E0FE96E000ECBDBE7D7D3DA5C
:1003E00001E1B4D2ADD2C6DA110EEECFDBFF120EB0
:1003F000EDCFDBFF110EDBCFE6FF120EDBCFE6FF0A
:1004000035EC11F0E552E552130EF3CFDBFF140E7D
:10041000F4CFDBFF060EDB5004E0130ED0DB01E26D
:100420000EDB03EC06F002E2130EDBDAAFDB05E0D5
:10043000040EC5DB02E2050ED4DA030EDBB005D0F4
:10044000A2DA01E07DD2080EDB6A090EDB6A110E2A
:10045000DBCFE9FF120EDBCFEAFFEFCFDFFFDF508C
:1004600014E0D7DB12E2E4DB03E1151C01E168D202
:1004700067DB01E3DB2A090EDB2A110EDB2ADBCF67
:10048000E9FF120EE8E3DB2AE6D77DDA01E15ED26E
:1004900057D2030EDB8E070EDB0410E195DB040E52
:1004A0005ADB0A0EEECFDBFF0B0EEECFDBFF0C0E9E
:1004B000EECFDBFF0D0EEECFDBFF6CD0070EDB5077
:1004C00003082CE1030EDBAE0DD0B2DA020E76DAB1
:1004D000EFCF14F0156A166A176A14AE39D0156892
:1004E000166835D0F70EDBCF15F0F80EDBCF16F01F
:1004F000020E155E000E165AF70E15C0DBFFF80E41
:1005000016C0DBFF15C0E9FF16C0EAFFEFCF14F0FD
:100510000A0E14C0DBFF0B0EDB6A38D0070EDB506F
:10052000020809E1030EDBAE04D059DB16AE10D091
:100530000ED055DB0DD0030EDBAE12D079DA020EF1
:100540003DDAF9DA166A176A15AE02D0166817682E
:10055000E2DA0C0E16C0DBFF0D0E17C0DBFF1AD05F
:10056000F70EDBCF16F0F80EDBCF17F0020E165E9B
:10057000000E175AF70E16C0DBFFF80E17C0DBFF90
:1005800016C0E9FF17C0EAFFD6DAC5DA0C0EDB6A3F
:100590000D0EDB6A060EDB5005E1010EF36E050E53
:1005A000F3CFDBFF150EDB6A160EDB6AD950370F6F
:1005B000146E000EDA20156E390E14C0DBFF3A0EF1
:1005C00015C0DBFF380EDB6A080EDB6A0A0EAEDAF6
:1005D000DF50780A12E0200A10E0280A0CE0200A16
:1005E0000AE03F0A06E00D0A02E0200A08E1020ED6
:1005F00005D0080E03D0080EDF26100E97DA030E82
:10060000DBBE02D0DB92DB94DB50800B24E08ADA85
:10061000D890030EEB50000A08E6000EEE5C000EC8
:10062000EE58000EEE58000EEE5815E213DA0B6885
:100630000C680D680E68FDEC10F00A0E02C0DBFFBE
:100640000B0E03C0DBFF0C0E04C0DBFF0D0E05C05C
:10065000DBFF2D0E08D0030EDBA202D02B0E03D041
:10066000DBA408D0200EF36E170EF3CFDBFF150EC0
:10067000DB2A02D0170EDB6A050EDB5003E1B7D987
:1006800001E189D0C00E146E230E156E000E166E99
:10069000070EDBCF17F0186A196A1A6A17C00BF039
:1006A00018C00CF019C00DF01AC00EF0D3D968ECC8
:1006B00011F014500224F36E15500320F46E1650FE
:1006C0000420F86EF4CFF7FFF3CFF6FF0800090E11
:1006D000F5CFDBFF580EDF5C0FE1610EF36E090E04
:1006E0007BD90AE3200E146E090EDBCFE7FF14500E
:1006F000E75E090EE7CFDBFF070EDBCF14F0156ACC
:10070000166A176A0FDA14C00BF015C00CF016C089
:100710000DF017C00EF0EECF06F0EECF07F0EECFE3
:1007200008F0EFCF09F068EC11F009C0EDFF08C048
:10073000EDFF07C0EDFF06C0EFFF390EDBCFE9FF8D
:10074000DB063A0EDBCFEAFF01E2DB06090EDBCF68
:10075000EFFF150EDB2A4BD995E1030EDBA61DD06A
:100760006F0EDF5C06E1C1D918E3150EDB285BDAFA
:1007700014D0780EDF5C09E0580EDF5C06E0620EF4
:10078000DF5C03E0420EDF5C08E1020EF36E160E42
:10079000F3CFDBFF02D0150EDB6A030EDB50100B2C
:1007A0000EE0040EDBCF14F0050EDB50D88014549D
:1007B00006E2060EDB5003E1040EDB5034DA95D975
:1007C0000AE2050EDBCFE7FF150EDB50E75E050EF4
:1007D000E7CFDBFF02D0050EDB6A040EDBCF14F09F
:1007E000160E45D9D880145414E2160EDBCFE6FF5E
:1007F000150EDBCFE6FF040EDBCFE6FF050EDB5068
:10080000E552E75CE552D880E754E552D880E754DA
:100810005FD9030EDB50010B0BE1080EDB5008E043
:10082000B2D801E08DD0080EDB50BED8080EDB6ACE
:10083000170EDB5007E088D9170EF1D903E1151C1C
:1008400001E17ED0160EDB5016E07ED9300EE66E4A
:100850009FD802E1151C74E077D9DFCFE6FF40ECAA
:1008600010F0E552E552E552F4CF15F00001F31C0B
:1008700002E1151C65E0050EDBCF14F0160EDB500F
:10088000D880145409E2050EDBCFE7FF160EDB50CB
:10089000E75E050EE7CFDBFF300EE66E050ECBD927
:1008A0004FE1390EDB2ADBCFE9FF3A0E01E3DB2A09
:1008B000DBCFEAFF090EEFCFDBFFDB500EE044D9C0
:1008C000090EADD902E1151C3BE0390EDB2ADBCF66
:1008D000E9FF3A0EEDE3DB2AEBD755D831E1160EEE
:1008E000DBCFE6FF080EC3D8E552E7245DD82ED053
:1008F000070EDB50030A1CE0010A14E0030A07E0BC
:100900007BD9DBCFEEFF020EDBCFEDFF1FD0F5D89A
:10091000196A17AE02D0186819682CD8BCD819C04B
:10092000EEFF14D0EAD817BE186824D8B4D80ED079
:1009300063D9DBCFEFFF0AD07BD905E1151C03E1BA
:10094000F368F46810D0FCD801E3DB2A79D945EFCD
:1009500000F0010EDBCF14F0020EDBCF15F014C057
:10096000F3FF15C0F4FF3B0EE15C02E2E16AE552E1
:10097000E16ECBD029D9020EABEF05F061D90800AA
:10098000F550DF6E1200200EE66E080E1BEF06F02B
:1009900040EC10F0E552E552E552F3CF14F0F4CFFD
:1009A00015F00001F31C1200146E156AD950010FE6
:1009B0004DD91450EE261550ED221200185E000E8F
:1009C000195AF70E18C0DBFFF80E19C0DBFF18C06C
:1009D000E9FF19C0EAFF1200DBCFF4FFF350F45C2B
:1009E0001200DB50E76E040EE7CFDBFF12000A0EA9
:1009F000DBCF14F00B0EDBCF15F00C0EDBCF16F0B7
:100A00000D0EDBCF17F01450151016101710120032
:100A1000130EEECFDBFF140EEDCFDBFF130EDBCF9B
:100A200014F0140EDBCF15F00001800E1514120027
:100A3000F70EDBCF18F0F80EDBCF19F01200050E21
:100A4000DB50E66ED950130F01D9E552E750EE6E38
:100A5000ED6A12000A0EDBCF06F00B0EDBCF07F0BB
:100A60000C0EDBCF08F00D0EDBCF09F01200DBCF50
:100A7000E6FF150EDBCFE6FF050EDB50E552E7245F
:100A8000E552E7241200DB50CED8010EF36E060EBD
:100A9000F3CFDBFF1200EE50EFCFEAFFE96E16C096
:100AA000EEFF17C0EEFF18C0EEFF1200D9CFE6FF31
:100AB000DACFE6FFE1CFD9FFE2CFDAFF1200DFCFD6
:100AC000E6FFE66AA2EC11F0E552E552F35012009F
:100AD000E76E080EE7CFDBFF1200EECF14F0EECF8B
:100AE00015F0EFCF16F0176A1200050EDBCF14F0E9
:100AF000150EDB50D88014541200010EDBCF16F017
:100B0000020EDBCF17F0186A1200E552E5CFDAFFCC
:100B1000E7CFD9FF12000A0E14C0DBFF0B0E15C081
:100B2000DBFF1200D9500A0F26EF06F0F36E070E16
:100B3000F3CFDBFF1200EECF14F0EFCF15F0120071
:100B4000010EDB2A020E1200FC0EDBCFE6FFFD0ECB
:100B5000DBCFE6FF1200145E000E155AF70E14C02C
:100B6000DBFFF80E15C0DBFF14C0E9FF15C0EAFF7C
:100B70001200DA20EA6EEF2AEECFF6FF000EEF2227
:100B8000EECFF7FFEF22EECFF8FF1200040EDBCF1F
:100B9000E6FF130EDB50E552E75C9ADFDB5004DF23
:100BA000060EDB501200090EDB500A0DF350DF2455
:100BB000D00FE76E090EE7CFDBFFBEEF04F0DB508E
:100BC000F36E050EECEF04F0F70EDBCF14F0F80E29
:100BD000DBCF15F01200DFCFE6FFC8EF04F028DF0F
:100BE000030EECDE6DEF05F01AEC00F0E552E55275
:100BF000E552E55200091200BDDEEE50EFCFEAFFEC
:100C0000E96E010E1200130EDB50F36E040EECEFD2
:100C100004F0040EDB50F36E090EECEF04F0DBCFB2
:100C2000E6FFC8EF04F0E76E050EE7CFDBFF12002A
:100C30008BDFEBEF05F0DBCFE6FF86DFF4EF05F0AF
:100C4000D950F90FE96EFF0EB9EF05F0E96E000E0D
:060C5000DA20EA6E12003A
:0A0C5600DACFE4FFE2CFDAFFE9CFC6
:100C6000E4FFEACFE4FFF6CFE4FFF7CFE4FFF5CFF0
:100C7000E4FFF3CFE4FFF4CFE4FFFACFE4FF00EEAC
:100C800000F0140EE80403E3EECFE4FFFBD700EE20
:100C900014F0070EE80403E3EECFE4FFFBD7E652BF
:100CA000F2A205D0F292010E0001806F816BF2A4D6
:100CB00057D0F29405EC0EF000019651971103E025
:100CC0009607000E975B9851991103E09807000E64
:100CD000995B9C519D1104E09C07000E9D5B02D026
:100CE0005CEC08F000019F5134E000019A519B1127
:100CF00030E1320E9A6F9B6B040E0001865D1BE1A2
:100D00008751882589258A25FC0BE842E8420001A5
:100D10009E6F0001866B00019E511B6E1C6AD8906D
:100D20001C5004E69F0E1B5C000E1C5802E2818AD8
:100D300017D0819A15D0AED9E66E00018651EA6AC5
:100D4000870FE96E000EEA22E552E750EF6E862B20
:100D500007D000019F5104E000019A07000E9B5B41
:100D6000E55200EE1AF0070EE80403E3E5CFEDFFCD
:100D7000FBD700EE13F0140EE80403E3E5CFEDFF1C
:100D8000FBD7E5CFFAFFE5CFF4FFE5CFF3FFE5CFE3
:100D9000F5FFE5CFF7FFE5CFF6FFE5CFEAFFE5CFBB
:100DA000E9FFE5CFDAFF1100D9CFE6FFE1CFD9FFA8
:100DB000020EE12601EC0EF00DEC0EF03CEC0EF014
:100DC0001BEC0EF05BEC0EF079EC0EF0E66AE66AD6
:100DD000800EE66E3F0EE66EF7D8E552E552E5521C
:100DE000E552000180518111FCE0190EE66EE66AC1
:100DF000C80EE66EE66AB9EC09F0E552E552E55236
:100E0000E552030E0001846F856B00019C519D111A
:100E10002FE000D9F3CFDEFFF4CFDDFFDECF14F0FB
:100E2000DDCF15F01E0E145C000E15581CE20001FB
:100E30008407000E855B84518511E7E15CEC08F0C6
:100E40000001A351E2E0680E146E1E0E156E166AC4
:100E500014C0E6FFE66E16C0E6FFF4EC0FF0E552B4
:100E6000E552E552D2D7030E0001846F856BCDD7D2
:100E70000001A3510FE0550E146E1E0E156E166A7A
:100E800014C0E6FFE66E16C0E6FFF4EC0FF0E55284
:100E9000E552E552E66AE66AE66A3F0EE66E94D8E7
:100EA000E552E552E552E552190EE66EE66AC80EC5
:100EB000E66EE66AFDEC09F0E552E552E552E552D0
:100EC00000019C519D11FCE1E66AE66AE66A3F0E6C
:100ED000E66E7AD8E552E552E552E552190EE66E15
:100EE000E66AC80EE66EE66AB9EC09F0E552E5522C
:100EF000E552E55200019C519D11FCE1E66AE66A6B
:100F0000E66A3F0EE66E60D8E552E552E552E552DC
:100F1000300E146E1E0E156E166A14C0E6FFE66ED5
:100F200016C0E6FFF4EC0FF0E552E552E5522B0E49
:100F3000146E1E0E156E145015103CE0E66AE66A3B
:100F4000800EE66E3F0EE66E3FD8E552E552E55262
:100F5000E5520001A351EBE05DD8F3CF14F0F4CFDC
:100F600015F0F3CFE6FFF4CFE6FF1A0E166E1E0E55
:100F7000176E186A16C0E6FFE66E18C0E6FFF4ECBE
:100F80000FF0196E050EE15E195000019E51E66EDC
:100F9000E66A040E146E1E0E156E166A14C0E6FF85
:100FA000E66E16C0E6FFF4EC0FF0176E050EE15E7C
:100FB0001750BDD7020EE15C02E2E16AE552E16E34
:100FC000E552E7CFD9FF1200D9CFE6FFE1CFD9FF35
:100FD000076A086AC80E096E420E0A6EFB0EDBCF66
:100FE0000CF0FC0EDBCF0DF0FD0EDBCF0EF0FE0E95
:100FF000DBCF0FF08CEC0CF04CEC0DF008C098F04F
:1010000009C099F0000198519911FCE1E552E7CF30
:10101000D9FF1200D9CFE6FFE1CFD9FF020EE126BA
:10102000E66AE00EE66E50EC0BF0E552E552510E2A
:10103000E66EE00EE66E50EC0BF0E552E5520A0E5D
:10104000E66ED70EE66EA30EE66E3D0EE66EBCDFD4
:10105000E552E552E552E552020EE66EE00EE66E0E
:10106000B0EC0AF0E552E552F3CFDEFFF4CFDDFF3E
:10107000DECF14F0DDCF15F014C0F3FF15C0F4FF80
:10108000020EE15C02E2E16AE552E16EE552E7CF71
:10109000D9FF1200D9CFE6FFE1CFD9FFE652C280D7
:1010A000C282C2A2FED7C450DF6EC290DF50E552AA
:0810B000E552E7CFD9FF120061
:0810B800BE6ACF0EBD14000951
:1010C000BD6EBB6ACF0EBA140009BA6E00019C6BEC
:1010D0009D6B1200D9CFE6FFE1CFD9FFE150FD0FA4
:1010E000E96EFF0EDA20EA6E010EEE1825E1ED50F2
:1010F00023E1FB0EDBCF14F0FC0EDBCF15F0D89014
:1011000015321432D890153214321450BE6E030EBC
:10111000E76EFB0EDBCF14F0FC0EE7501416156AD9
:101120001450030BF36EF346F346F346F346CF0E2B
:10113000BD14F310BD6E2DD0D950FD0FE96EFF0E1A
:10114000DA20EA6E020EEE1824E1ED5022E1FB0EE9
:10115000DBCF14F0FC0EDBCF15F0D8901532143233
:10116000D890153214321450BB6E030EE76EFB0E8E
:10117000DBCF14F0FC0EE7501416156A1450030B65
:10118000F36EF346F346F346F346CF0EBA14F3106C
:10119000BA6EE552E7CFD9FF1200D9CFE6FFE1CF13
:1011A000D9FFFD0EDBCF08F0FE0EDBCF09F079ECA6
:1011B0000CF04CEC0DF008C0A5F009C0A6F0000141
:1011C000093408E2A5513208000EA65503E2320E9A
:1011D000A56FA66BCB50166E176AE850A503F3CF28
:1011E00014F0F4CF15F0A603F350000115261750A4
:1011F0000001A503F35000011526640E0D6E0E6A62
:1012000014C008F015C009F0F9EC0CF008C014F097
:1012100009C015F008C0E6FF09C0E6FF010EE66E42
:10122000E66A58DFE552E552E552E552CB50166EBC
:10123000176A0001E850A503F3CF14F0F4CF15F0BE
:10124000A603F3500001152617500001A503F35023
:1012500000011526640E0D6E0E6A14C008F015C04C
:1012600009F0F9EC0CF008C014F009C015F008C042
:10127000E6FF09C0E6FF020EE66EE66A2BDFE552E6
:10128000E552E552E552E552E7CFD9FF1200D9CF3A
:10129000E6FFE1CFD9FFF70EDB50E8B0808CE8A085
:1012A000809CF90EDB50E8B0808EE8A0809EFB0E9B
:1012B000DBCF9CF0FC0EDBCF9DF0CB50166E176A97
:1012C000FD0EDBCF08F0FE0EDBCF09F016C00DF0EF
:1012D00017C00EF01FEC0DF006C014F007C015F09B
:1012E000640E0D6E0E6A06C008F007C009F0F9EC36
:1012F0000CF008C014F009C015F008C0E6FF09C0E2
:10130000E6FF010EE66EE66AE5DEE552E552E552DD
:10131000E552CB50166E176AFD0EDBCF08F0FE0EBD
:10132000DBCF09F016C00DF017C00EF01FEC0DF06A
:1013300006C014F007C015F0640E0D6E0E6A06C0EC
:1013400008F007C009F0F9EC0CF008C014F009C06F
:1013500015F008C0E6FF09C0E6FF020EE66EE66A79
:10136000B9DEE552E552E552E552E552E7CFD9FF45
:101370001200D9CFE6FFE1CFD9FF808C808E0A0E14
:10138000086E096AFD0EDBCF0DF0FE0EDBCF0EF00E
:101390001FEC0DF006C014F007C015F006C008F0F1
:1013A00007C009F0FB0EDBCF0DF0FC0EDBCF0EF01B
:1013B000F9EC0CF008C09CF009C09DF0FB0EDBCFEF
:1013C000E6FFFC0EDBCFE6FFE8DEE552E55200016A
:1013D000A3510FE09E0E146E1E0E156E166A14C0F9
:1013E000E6FFE66E16C0E6FFF4EC0FF0E552E552BC
:1013F000E552E552E7CFD9FF1200D9CFE6FFE1CFA2
:10140000D9FF808C809E0A0E086E096AFD0EDBCF24
:101410000DF0FE0EDBCF0EF01FEC0DF006C014F049
:1014200007C015F006C008F007C009F0FB0EDBCFBF
:101430000DF0FC0EDBCF0EF0F9EC0CF008C09CF0C8
:1014400009C09DF0FB0EDBCFE6FFFC0EDBCFE6FF15
:10145000A4DEE552E5520001A3510FE08E0E146E9A
:101460001E0E156E166A14C0E6FFE66E16C0E6FF85
:10147000F4EC0FF0E552E552E552E552E7CFD9FF23
:101480001200D9CFE6FFE1CFD9FF809C808E0A0EF3
:10149000086E096AFD0EDBCF0DF0FE0EDBCF0EF0FD
:1014A0001FEC0DF006C014F007C015F006C008F0E0
:1014B00007C009F0FB0EDBCF0DF0FC0EDBCF0EF00A
:1014C000F9EC0CF008C09CF009C09DF0FB0EDBCFDE
:1014D000E6FFFC0EDBCFE6FF60DEE552E5520001E1
:1014E000A3510FE07D0E146E1E0E156E166A14C009
:1014F000E6FFE66E16C0E6FFF4EC0FF0E552E552AB
:0A150000E552E552E7CFD9FF1200D3
:06150A00800EC76E280EE2
:10151000C66EC56A130EC86E1200D9CFE6FFE1CFC2
:10152000D9FF1F0EC514FDE1C750040BFAE1C580B9
:10153000C5B0FED7FE0EDB50C96EC7B0FED7C5BC26
:10154000FED71F0EC514FDE1C750040BFAE1C58498
:10155000C5B4FED79E96000EE552E7CFD9FF120024
:10156000D9CFE6FFE1CFD9FF060EE126040EDB6AF4
:101570000A0EF36E050EF3CFDBFFFE0EDBCFE6FFA8
:1015800082EC10F0E552E76E040EE7CFDBFF050EAC
:10159000DB06040EDB500EE0050EDBCF14F0000E70
:1015A000E76E1418E8AE02D0143403D0E750D880A8
:1015B0001454E3E30A0EF36E050EF3CFDBFFFD0ECA
:1015C000DBCFE6FFFE0EDBCFE6FF86EC0EF0E5524A
:1015D000E552020EF3CFDBFF030EF4CFDBFF050E67
:1015E000DB06030EDB500EE0050EDBCF14F0000E21
:1015F000E76E1418E8AE02D0143403D0E750D88058
:101600001454DDE3030EDB5002E0DF6806D0020E67
:10161000DB50E76E010EE7CFDBFF0A0EF36E050E1F
:10162000F3CFDBFFFD0EDB28E66EFE0EDBCFE6FF21
:1016300086EC0EF0E552E552020EF3CFDBFF030E0F
:10164000F4CFDBFF050EDB06030EDB500EE0050ECC
:10165000DBCF14F0000EE76E1418E8AE02D014349D
:1016600003D0E750D8801454DDE3030EDB5003E0D1
:10167000010EDB6803D0020EDB50DF6EDECF14F00C
:10168000DDCF15F014C0F3FF15C0F4FF060EE15CCA
:1016900002E2E16AE552E16EE552E7CFD9FF1200BE
:1016A000D9CFE6FFE1CFD9FF020EE126DF6ADE5295
:1016B0000A0EDD6EFE0EDBCFE6FF82EC10F0E55287
:1016C000DF6E010EDB06DF500EE0010EDBCF14F003
:1016D000000EE76E1418E8AE02D0143403D0E750C1
:1016E000D8801454E7E3DE520A0EDD6EFD0EDBCF28
:1016F000E6FFE66AFE0EDBCFE6FFA7EC0FF0E55251
:10170000E552E552DF6E010EDB06DF500EE0010E02
:10171000DBCF14F0000EE76E1418E8AE02D01434DC
:1017200003D0E750D8801454E1E3020EE15C02E2FA
:10173000E16AE552E16EE552E7CFD9FF1200D9CF59
:10174000E6FFE1CFD9FFE652DF6A1F0EC514FDE1C7
:10175000C750040BFAE1C580C5B0FED7FE0EDB50C2
:10176000C96EC7B0FED7C5BCFED71F0EC514FDE1BC
:10177000C750040BFAE1DFCF14F0156A14BE1568E8
:10178000FC0EDB501424E96EFD0EDB501520EA6ED2
:10179000EF50C96EC7B0FED7C5BCFED7DF50DF2AF9
:1017A000146E156A14BE1568FC0EDB501424E96E25
:1017B000FD0EDB501520EA6EEF50D7E11F0EC51469
:1017C000FDE1C750040BFAE1C584C5B4FED79E966F
:1017D000000EE552E552E7CFD9FF1200D9CFE6FF60
:1017E000E1CFD9FFE652DF6A1F0EC514FDE1C750F5
:1017F000040BFAE1C580C5B0FED7FE0EDB28C96E2A
:10180000C7B0FED7C5BCFED71F0EC514FDE1C7503B
:10181000040BFAE1C586C7A0FED7DFCF14F0156A26
:1018200014BE1568FC0EDB501424E96EFD0EDB506F
:101830001520EA6EC9CFEFFFC95002E0C59A01D06A
:10184000C58AC588C5B8FED7DF50DF2A146E156A71
:1018500014BE1568FC0EDB501424E96EFD0EDB503F
:101860001520EA6EEF50D0E11F0EC514FDE1C75000
:10187000040BFAE1C584C5B4FED79E96000EE5526E
:10188000E552E7CFD9FF1200D9CFE6FFE1CFD9FF6C
:10189000E652DF6A1F0EC514FDE1C750040BFAE1E2
:1018A000C580C5B0FED7FE0EDB50C96EC7B0FED7EF
:1018B000C5BCFED71F0EC514FDE1C750040BFAE1ED
:1018C000FD0EDB50C96EC7B0FED7C5BCFED71F0EDC
:1018D000C514FDE1C750040BFAE1C584C5B4FED7B9
:0E18E0009E96DF50E552E552E7CFD9FF120089
:0218EE00019E59
:1018F00008D0019E09AE05D0086C091EE86A0922CD
:10190000018E09C003F008C002F0136A126A8E0E3D
:10191000046E056A97EF0DF0016AD3EC0DF0EBEC65
:101920000DF001B67BEF0DF001A205D001B87BEF01
:101930000DF082EF0DF001AA05D001B07BEF0DF0A4
:1019400082EF0DF001B002D001A802D08EEF0DF0B1
:10195000056A0F500A24046EE86A05227E0E045EB2
:10196000E86A055A126A136A026A036A0E5009028B
:10197000F4CF03F0F3CF02F00D500902F350132619
:10198000F4500222000E03220E500802F3501326D8
:10199000F4500222000E03220C500902F3501226CA
:1019A000F4501322000E022203220D500802F350BD
:1019B0001226F4501322000E022203220E500702B8
:1019C000F3501226F4501322000E022203220C5070
:1019D0000802F4501226000E1322022203220D5098
:1019E0000702F4501226000E13220222032297EF60
:1019F0000DF0006A0EAE02EF0DF00D6C0E1EE86ADF
:101A00000E22001E09AE0AEF0DF0086C091EE86AEE
:101A10000922001E8CEC11F009BE1AEF0DF000AE89
:101A2000000C086C091EE86A0922046C051EE86AAD
:101A30000522000C00BE11EF0DF00188FF0C09C05B
:101A400013F008C012F008500D02F4CF07F0F3CFE6
:101A500006F009500E02F4CF09F0F3CF08F00D02A2
:101A6000F3500726F4500822E86A092212500E02A9
:101A7000F3500726F4500822E86A09220EAE45EF1B
:101A80000DF01250085E1350095A13AE000C0D50A1
:101A9000085E0E50095A000C016AD3EC0DF001B635
:101AA00056EF0DF001A20ED001B405D07F0E096EE5
:101AB000FF0E086E1FD0800E096E086A1BD0096ADF
:101AC000086A18D001B0FBD78F0E0A60EDD77E0EE2
:101AD0000A64F5D78E0E0A5C05E0D8900932083208
:101AE0000A2AF8D701A406D0086C091EE86A092260
:101AF00009AEE5D712007F0E0A6EFF0E096E086E62
:101B0000076E12007F0E01BEFF0E0A6E02D07F0E1E
:101B10000A6E800E096E086A076AF3D701AE04D018
:101B2000800E0A6E096AF7D70A6A096AF4D7035069
:101B3000021013101210F8E005BEF0D703BE0CD04F
:101B400004500510EBE0D8901236133602360336F7
:101B50000406D8A00506F2D70550D4E10428D2E047
:101B600012AE11D07F0E121402E113A00CD0132A72
:101B7000E86A0222032207E3D880033202321332DA
:101B8000042A0428BFE00450C9E013C007F002C0D3
:101B900008F00334096E04300A6E09320A9E01BE51
:101BA0000A8E81EF0DF009360A3602E30184017EC8
:101BB00006E101800A6A096A086A076A12000A28AF
:101BC00003E0D88009321200D890093202E1018284
:101BD0001200018612000E360F3602E3018C017EE0
:101BE00006E101880F6A0E6A0D6A0C6A12000F285E
:101BF00003E0D8800E321200D8900E32EAE1018A5A
:021C00001200D0
:0E1C0200D388D38AD38C1200A8C014F01450DB
:101C1000D76E0001A751D66E1200D59AD59CD58EED
:101C2000D5860001DF0EA76FB10EA86FEEDF0001B1
:101C3000010EA26F1200CA84FC0ECA140209CA6EF9
:101C40007C0ECB6EF00EBD140C09BD6EBE6ACF0EBD
:101C5000BD140009BD6EF00EBA140C09BA6EBB6A51
:101C6000CF0EBA140009BA6E929C929E94929494EC
:101C70000001010EA16F1200F19CF288F28AF28C31
:101C8000F28E0001010EA06F1200939AC190C192D2
:101C9000C184C186C198C19AC090C092C084C096C8
:101CA000C088C09AC294C286C298C29AC09E0001DF
:101CB000010E9F6F1200B896AC84AC98330EAF6ED5
:101CC000949CAB8EAC8A9E989D98AB88F00E146E57
:101CD0001D0E156E166A14C0E6FFE66E16C0E6FF0E
:101CE000F4EC0FF0E552E552E5520001010EA36F4E
:101CF000120094869488800EC76E280EC66EC56A40
:0C1D0000130EC86E0001010EA46F12004B
:041D0C00D9CFE6FF46
:101D1000DACFE6FFE1CFD9FFE2CFDAFFE9EC11F04D
:101D2000C580C5A003D0FDD7C5B0FED7A1B63BD0B6
:101D3000FD0E57D804E0C584C5B4FED71ED0C5BC7F
:101D40003DD0FC0E4ED804E0C584C5B4FED715D0F6
:101D5000C5BC2FD0C582C5A203D0FDD7C5B2FED762
:101D6000A1B621D0FD0EDB28E66EC4EC10F0E552E2
:101D7000000905E0C584C5B4FED7FD0E23D0C5BC5F
:101D800014D0C586C5B6FED7C58AC588C5A803D0F8
:101D9000FDD7C5B8FED7C584C5A403D0FDD7C5B44B
:101DA000FED7A1A612D0F3680ED0C584C5B4FED765
:101DB00003D0C584C5B4FED7FE0E04D0C584C5B417
:101DC000FED7FE0EF36EF46806D0C950146E156A85
:101DD000F36E15C0F4FFE552E5CFDAFFE7CFD9FF88
:101DE0001200DBCFE6FFC4EC10F0E5520009120050
:101DF0005541525420696E697469616C69736564F8
:101E0000200D0A00426174746572792076616C75E8
:101E100065203A202564200D0A0044697374616EC0
:101E20006365203A202564200D0A0046657572001E
:101E3000526F7574696E652066696E697368656452
:101E40002C20676F696E6720696E746F206C6F6FEE
:101E500070200D0A0053746F7070696E67206D6F8B
:101E6000746F7273200D0A004F62737461636C6546
:101E7000206465746563746564200D0A005475728E
:101E80006E696E67207269676874200D0A00547568
:101E9000726E696E67206C656674200D0A00476F6C
:0F1EA000696E6720666F7277617264200D0A00A9
:101EB0000E0EF66E000EF76E000EF86E00010900B1
:101EC000F550916F0900F550926F03E1916701D0D1
:101ED0003DD00900F5508C6F0900F5508D6F090059
:101EE000F5508E6F09000900F550E96E0900F550B4
:101EF000EA6E090009000900F5508F6F0900F550DE
:101F0000906F09000900F6CF93F0F7CF94F0F8CF67
:101F100095F08CC0F6FF8DC0F7FF8EC0F8FF000172
:101F20008F5302E1905307E00900F550EE6E8F07E2
:101F3000F8E29007F9D793C0F6FF94C0F7FF95C079
:0E1F4000F8FF00019107000E925BBFD7120060
:021F4E00D9CFE9
:101F5000E6FFDACFE6FFE1CFD9FFE2CFDAFFE9EC27
:101F600011F0C580C5A003D0FDD7C5B0FED7A1B67E
:101F70002BD0FD0E32D804E0C584C5B4FED711D0F5
:101F8000C5BC15D0FC0E29D804E0C584C5B4FED765
:101F900008D0C5BC08D0FB0E20D80EE0C584C5B45F
:101FA000FED7FD0E14D0C584C5B4FED703D0C584BA
:101FB000C5B4FED7FE0E0BD0C584C5A403D0FDD793
:101FC000C5B4FED7A1A602D0FF0E01D0000EE55287
:101FD000E5CFDAFFE7CFD9FF1200DBCFE6FFC4EC95
:081FE00010F0E55200091200A7
:081FE800D9CFE6FFDACFE6FFD6
:101FF000E1CFD9FFE2CFDAFFE652E652E652E652EF
:10200000D950FB0F146EFF0EDA20156E14C0DEFFE0
:10201000DD6EDECFE6FFDDCFE6FFFB0EDBCFE6FFBA
:10202000FC0EDBCFE6FFFD0EDBCFE6FFA9C0E6FF2F
:10203000AAC0E6FF30EC00F0146E070EE15C02E28D
:10204000E16AE552E16E1450020EF3CFDBFF030E9E
:10205000F4CFDBFF020EDBCF14F0030EDBCF15F065
:1020600014C0F3FF15C0F4FF040EE15C02E2E16A64
:10207000E552E16EE552E5CFDAFFE7CFD9FF120076
:10208000D9CFE6FFDACFE6FFE1CFD9FFE2CFDAFF23
:10209000FB0EDBCF14F0FC0EDBCF15F00001800E41
:1020A00015141AE1FB0EDBCFE9FFFC0EDBCFEAFFD4
:1020B000EECFF3FFEDCFF4FFEE2A000EEF22F3CFC9
:1020C000E9FFF4CFEAFFFD0EDBCFEFFFEF50156A1B
:1020D000F36E15C0F4FF10D0FB0EDB50FE0806E1D6
:1020E000FD0EDBCFE6FFD2EC11F005D0FD0EDBCF0D
:1020F000E6FF03EC00F0E552E552E5CFDAFFE7CF6B
:04210000D9FF1200F1
:0C210400D9CFE6FFDACFE6FFE1CFD9FF2C
:10211000E2CFDAFFE9EC11F0C580C5A003D0FDD70E
:10212000C5B0FED7A1B61FD027D804E1C584C5B479
:10213000FED70FD0C5AC0FD0C582C5A203D0FDD746
:10214000C5B2FED7A1B60FD017D8F4E1C584C5B487
:10215000FED7FD0E0BD0C584C5A403D0FDD7C5B4F2
:10216000FED7A1A602D0FF0E01D0000EE552E5CFAA
:10217000DAFFE7CFD9FF1200FD0EDBCFE6FFC4EC9C
:0821800010F0E552FF08120007
:08218800D9CFE6FFDACFE6FF34
:10219000E1CFD9FFE2CFDAFFFD0EDB50C96EC6AE4C
:1021A00002D0FF0E24D00F0EC61408080FE00F0E49
:1021B000C6140B080BE0C6889EA6FED7C750040BBA
:1021C00003E1C750010B10E0000E11D00F0EC61432
:1021D000080804E00F0EC6140B0809E1C7B0FED7CB
:1021E000E9EC11F0C5AC02D0FE0E01D0000EE552B4
:0A21F000E5CFDAFFE7CFD9FF1200B8
:0621FA0006500B02F3CFBA
:1022000002F0F4CF03F00C02F3500326000EF4208A
:10221000046E06500D02F3500426000EF420056EE5
:1022200006500E02F350052607500B02F35003260A
:10223000F4500422000E052207500C02F35004262D
:10224000F450052207500D02F350052608500B02EA
:10225000F3500426F450052208500C02F3500526D2
:0A22600009500B02F350052612008E
:06226A00FE0EE3CFE9FFC8
:10227000FF0EE3CFEAFFF36AF46AEE5203E0F34A9B
:10228000F42AFBD71200FF0EE3CFF8FFE552FF0E52
:10229000E3CFF7FFE552FF0EE3CFF6FFE552E66A24
:1022A000E66AE66A0900F55209E0FD0EE32A05E157
:1022B000FE0EE32A02E1FF0EE32AF4D7FD0EE3CF80
:1022C00007F0FE0EE3CF08F0FF0EE3CF09F0120097
:1022D000056A046A036A026A200EE76ED890063621
:1022E00007360836093602360336043605360B50F3
:1022F000025C0C5003580D5004580E50055809E369
:102300000B50025E0C50035A0D50045A0E50055AE1
:08231000062AE72EE4D71200B3
:08231800056A046A100EE76E6D
:10232000D89008360936043605360D50045C0E5038
:10233000055805E30D50045E0E50055A082AE72E95
:04234000F0D71200C0
:0C234400F36AF46AFF0EE124E96EFF0E5C
:10235000E220EA6EED6607D02F0EEF6404D03A0E4D
:08236000EF6001D0F32A120026
:08236800000EF36E00EE00F020
:10237000060E01D81200EA6002D0EE6AFCD7F350D4
:08238000E9601200EE6AFCD7CF
:0823880015EE00F025EE00F057
:10239000F86A019C58EC0FF0F0EC11F0D4EC06F068
:0423A000FBD7120055
:0C23A400FF0EE350ACBA04D0AF6AAB8E61
:1023B000AC8A949CACA2FED7AD6EF36EF46A1200A8
:1023C00030313233343536373839616263646566AB
:0123D000000C
:0E23D2001F0EC514FDE1C750040BFAE1120006
:0223E0001200E9
:0223E200FEFFFC
:0923E40000000000000000007F71
:0323ED00000000ED
:0323F000000000EA
:020000040030CA
:0100010008F6
:010003001EDE
:010005008179
:0100060001F8
:00000001FF
